{
  "_format": "hh3-artifact-1",
  "contractName": "FaucetERC20",
  "sourceName": "contracts/FaucetERC20.sol",
  "abi": [
    {
      "inputs": [
        {
          "internalType": "address",
          "name": "tokenAddress",
          "type": "address"
        }
      ],
      "stateMutability": "nonpayable",
      "type": "constructor"
    },
    {
      "inputs": [
        {
          "internalType": "address",
          "name": "",
          "type": "address"
        }
      ],
      "name": "nextTry",
      "outputs": [
        {
          "internalType": "uint256",
          "name": "",
          "type": "uint256"
        }
      ],
      "stateMutability": "view",
      "type": "function"
    },
    {
      "inputs": [],
      "name": "tokenContract",
      "outputs": [
        {
          "internalType": "contract IERC20",
          "name": "",
          "type": "address"
        }
      ],
      "stateMutability": "view",
      "type": "function"
    },
    {
      "inputs": [],
      "name": "withdraw",
      "outputs": [],
      "stateMutability": "nonpayable",
      "type": "function"
    }
  ],
  "bytecode": "0x60a0604052348015600e575f5ffd5b506040516102f73803806102f7833981016040819052602b91603b565b6001600160a01b03166080526066565b5f60208284031215604a575f5ffd5b81516001600160a01b0381168114605f575f5ffd5b9392505050565b6080516102736100845f395f81816084015261015f01526102735ff3fe608060405234801561000f575f5ffd5b506004361061003f575f3560e01c80633ccfd60b1461004357806346f812011461004d57806355a373d61461007f575b5f5ffd5b61004b6100be565b005b61006c61005b3660046101cc565b5f6020819052908152604090205481565b6040519081526020015b60405180910390f35b6100a67f000000000000000000000000000000000000000000000000000000000000000081565b6040516001600160a01b039091168152602001610076565b335f9081526020819052604090205442116101125760405162461bcd60e51b815260206004820152601060248201526f496e76616c696420776974686472617760801b604482015260640160405180910390fd5b61011f62015180426101f9565b335f818152602081905260409081902092909255905163a9059cbb60e01b8152600481019190915267016345785d8a000060248201526001600160a01b037f0000000000000000000000000000000000000000000000000000000000000000169063a9059cbb906044016020604051808303815f875af11580156101a5573d5f5f3e3d5ffd5b505050506040513d601f19601f820116820180604052508101906101c9919061021e565b50565b5f602082840312156101dc575f5ffd5b81356001600160a01b03811681146101f2575f5ffd5b9392505050565b8082018082111561021857634e487b7160e01b5f52601160045260245ffd5b92915050565b5f6020828403121561022e575f5ffd5b815180151581146101f2575f5ffdfea26469706673582212209490f4da4d97737cbede0bbd025ddbff3d34e4ccc8de2dd2d9f6be1cb00378f564736f6c634300081c0033",
  "linkReferences": {},
  "deployedLinkReferences": {},
  "immutableReferences": {
    "83": [
      {
        "length": 32,
        "start": 132
      },
      {
        "length": 32,
        "start": 351
      }
    ]
  },
  "inputSourceName": "project/contracts/FaucetERC20.sol",
  "buildInfoId": "solc-0_8_28-73b1b73bb3cc5d6b34bf9585eac8a2b2916d11ca"
}